:020000040000FA
:20480000E0080020E14A00000F4B0000114B0000B14B0000F94B000000000000000000006F
:20482000000000000000000000000000214B00000000000000000000234B0000ED61000050
:20484000274B0000274B0000274B0000274B0000274B0000274B0000274B0000274B0000C8
:20486000274B0000274B0000274B0000274B0000274B0000274B0000274B0000274B0000A8
:20488000274B0000274B0000274B0000274B0000274B0000274B0000274B0000274B000088
:2048A000274B0000274B0000274B0000274B0000274B0000274B0000274B0000274B000068
:2048C000274B0000F5630000274B0000274B0000274B0000274B0000274B0000274B000062
:2048E000274B0000274B0000274B0000274B0000274B0000274B0000274B0000274B000028
:20490000274B0000274B0000274B0000A9660000274B0000274B0000274B0000274B00006A
:20492000274B0000274B0000274B0000274B0000274B0000274B0000274B0000274B0000E7
:2049400000F002F800F055F80CA030C8083824182D18671EA246AB4654465D46AC4201D170
:2049600000F047F87E460F3EB6460FCC0126334200D0FB1A3343A246AB461847E4250000E8
:2049800004260000103A02D378C878C1FAD8520701D330C830C101D504680C607047000008
:2049A0000023002400250026103A01D378C1FBD8520700D330C100D50B60704710B56429D5
:2049C00002D102F039F810BD782902D102F06AF810BD632902D102F0A9F910BD732902D150
:2049E00002F0ACF910BD002010BD1FB51FBD10B510BD02F0E7F91146FFF7F7FF01F03CFFE3
:204A000002F0FFF903B4FFF7F2FF03BC02F006FA0A4801684907C90E094A515800690F22E5
:204A20000240501CB1FBF0F006490860064940180649B0FBF1F00649086070471002004043
:204A4000C86E00000400002020A1070040420F00000000200548016840F203120A430C210C
:204A60008A43026002480349016070474CC0004008ED00E0004800000848016840F600728F
:204A8000914340F200228918016001684FF20002914342F20002891801607047300000400D
:204AA00010B5064C30210022204600F0ADFC204610BC02BC8E4600F0EFBCC046143D4C7EED
:204AC0000120000505490A6802430A600A6882430A60E1204102CA4800F00AB90C0000404B
:204AE000184840F25901016040F21601016040F28801016014488047144A45F6A5211160B0
:204B0000134A11600F480021016012480047FEE77046EFF30881EFF309820F4B984700475A
:204B2000FEE7FEE7FEE7FEE70C480D490B4A0D4B70470000ABBE0C4B08B5984708BD7046FC
:204B4000F047000000010040554A000024000040EC01004041490000714B0000E000002067
:204B6000E0080020E00000206D4B00000020704710B5430700D511468A691388064CA3429E
:204B800005D10A4B00241C60921C8A6110BD03A002F050F8FEE7C046ABBE000020204861CA
:204BA00072644661756C74210A000000080000200121CA0506498B691342FCD1C3B20A2BD0
:204BC00004D10D230B608B691342FCD108607047004007400121CA0506498B691342FCD153
:204BE000C3B20A2B04D10D230B608B691342FCD10860704700400740034881694904FCD48D
:204C00000068C0B27047C04600400740024800684004C00F7047C0461840074002480068A3
:204C2000C000C00F7047C04618400740FFF7D2BF10B50446FFF7CEFF204610BD03488169C8
:204C40004904FCD40068C0B27047C046004007400020C0437047000010B50123CA0101D5B5
:204C60001A048261104A1446F134214201D0782484610C0506D48C0409D44B040CD4090411
:204C80000ED410BD44691C4344618C04F5D51B065B1C83614B04F2D51F2343640904F0D50D
:204CA0008021C161826310BD0F030000002141607047416843F2000291434160704742683E
:204CC0008A4342607047016940F200220A430261416940F200120A434261416843F2000282
:204CE0000A434260704742680A4342607047C046F0B587B00D4604463C4801A94CC84CC1F0
:204D00004CC84CC13A4884421BD03A4961180C22D14103291DD88A0001A39A189746C0461F
:204D200000F006B800F018B800F01EB800F023B831490A46083A12685200560F4968090479
:204D40001FE02D490A46083A12685201560F496816E00026334615E027490A6849690F2319
:204D60000B4051014E0F0DE023490A685200560F4969090605E020490A685206560F4969C7
:204D800009050B0F002121630327E760A1681B4A0A40A260042E0FD10093844205D018487B
:204DA000844202D01748844202D100F05DFA01E000F092FA0590009BB5B1B00001A908586F
:204DC000591CB0FBF1F168080818B0FBF5F0801E020C06D0E8000818B0FBF5F00009801EF0
:204DE00001E039070843606207B0F0BD806E00000000074000F0F8BF1C0200400FFFF0FFEA
:204E00000040074000200740F0B58AB103460020C443084D26469F697F0403D5761CAE42AE
:204E2000F9D904E01E680E54401C9042F2D3F0BD0020F0BDFEFFFF3FF0B587B01C4600925C
:204E40000F460546394801A94CC84CC14CC84CC1374885421AD0374969180C22D1410329A8
:204E60001BD88A0001A39A189746C04600F006B800F016B800F019B800F01DB82E4A1146BB
:204E800008390968090F5268130B19E02A4A114608390968090E526811E00026324624E096
:204EA00025490A684B69110E0AE0234A1168090F5269130904E0204A116809095269130ACF
:204EC00007220A400F261E40042A0ED1854205D01A48854202D01A48854202D100F0C4F97F
:204EE00001E000F0F9F9059004220C98BFB1910001AA5158721CB1FBF2F279085118B1FB87
:204F0000F7F1891E0B0C06D0F9005118B1FBF7F10909891E02E0032212071143696200998E
:204F20000C430443EC6007B0F0BDC046806E00000000074000F0F8BF1C0200400040074064
:204F400000200740026AFF239A430A430262416840F600020A4342607047C046F0B587B065
:204F600000920E4604463B4801A92CC82CC12CC82CC1022727633848844219D03749611837
:204F80000C22D14103291AD88A0001A39A18974600F006B800F016B800F019B800F01DB804
:204FA0002F4A114608390968090F5268130B19E02B4A114608390968090E526811E0002521
:204FC0002A4624E026490A684B69110E0AE0244A1168090F5269130904E0214A116809090F
:204FE0005269130A07220A400F251D40042A0ED1844205D01B48844202D01B48844202D136
:2050000000F032F901E000F067F905900422009B7EB1900001A90858691CB0FBF1F0F10023
:205020004018B0FBF6F00009801E1049884200D86062A06A2BB120218843A062A06A3843AA
:2050400004E040210843A062A06AB843A06207B0F0BDC046806E00000000074000F0F8BF71
:205060001C0200400040074000200740FEFF000010B503230363C36A044C1C40C46212067F
:205080000A43C16A1143C16210BDC046FFF8FF00F0B592B103460020C443094D26469F6936
:2050A0003F0203D5761CAE42F9D905E00E5C1E60401C9042F2D11046F0BD0020F0BDC046EF
:2050C000FEFFFF3F016B04220A4303218A4302637047000002490A6802430A607047C04680
:2050E00004000040024800684006C00F7047C04618000040014800687047C04604000040DE
:2051000002480168012088437047C0460001004001208007006870470248016801220A4308
:2051200002607047080000400248016802220A43026070470800004010B5010E064A8B5882
:20514000FF242406A0430124844023438B508858A043885010BDC0460800004010B5084A28
:20516000136801241C43146013680824A3430343136007200004136883430B43136010BD7C
:20518000180000400248016801229143016070471800004004490A6803239A4302430A602C
:2051A0004868C007FCD17047F80100400248016840229143016070470802004052010A43D0
:2051C00005498A650A68402313430B60CA6870239A430243CA6070470802004010B50C48D1
:2051E000016804220A4302600A48016880220A4302600948016842690323DB4304681C40F4
:20520000046044691C40446130BF0160426110BD10ED00E000020040F000004005480168B7
:205220000422914301600448016880229143016030BF704710ED00E000020040034800680F
:2052400001210140494202480840704700020040001BB70003480068810348F2000008404A
:205260007047C0460002004080B5FFF7D1FB1848016807200840052813D8810001A251185B
:205280008F46C04600F00AB800F00DB800F00FB800F011B800F013B800F015B80D48006827
:2052A00080BD002080BD0B480068400880BD09480068800880BD07480068C00880BD05488D
:2052C0000068000980BD03480068400980BDC046340200400400002080B5FFF799FB184828
:2052E00000684006400F052813D8810001A251188F46C04600F00AB800F00DB800F00FB813
:2053000000F011B800F013B800F015B80D48006880BD002080BD0B480068400880BD094874
:205320000068800880BD07480068C00880BD05480068000980BD03480068400980BDC0464A
:20534000340200400400002080B5FFF761FB0148006880BD0400002080B5FFF759FB014852
:20536000006880BD04000020F0B581B0154C276D226804252A432260134A002313601026CE
:205380003E40124F3F68226DD20602D47F1EFAD100E017B9DA430C4B1A60226907231A4332
:2053A0002261226A0F27BA430A4322622169994301432161FFF72CFB16B92068A8432060CF
:2053C00001B0F0BD00020040D000002004000020B0B50A4900220A60094B1B68094C25681C
:2053E0000540854203D05B1EF9D1104602E0012003B1B0BDD2430A60B0BDC046D00000202F
:20540000040000205002004070B5830ADCB20F4B64B18505ED0EAC40050C0C262E400CA554
:20542000AD59ED182E69A64316432E610201520F0BD0C401E40EA240800E0C2404400848CF
:205440000059C45894430C43C45070BD1002004000000000040000000C00000010000000FE
:20546000986E000003490A6838239A4302430A607047C0461002004002490A6802430A6006
:205480007047C0460002004002490A6882430A607047C046000200401F21014001228A40B4
:2054A000800F80000349085803494358134343507047C046746E0000040200401F210140FB
:2054C00001228A40800F80000349085803494358934343507047C046746E000004020040EF
:2054E00070B5104A002313600F4C2568042806D11020854325601468042020430AE010260C
:2055000035432560E5683826B5430543E56010680424A043106051609360106803210143E7
:20552000116070BD10E000E004020040014800210160704710E000E003490A6807239A43A0
:2055400002430A607047C046900200400101490F0CD0C201D20E9140800E0C230340044817
:20556000C058044BC0580840D040704700207047986E000010020040810AC9B261B18205CF
:20558000D20E9140000C0C23034004A0C058074BC0580840D04070470020704700000000D0
:2055A0000400000008000000100000002002004070B516460D4604461E48844206D01E49E6
:2055C0008C4207D11D490968090A0BE01B490968090B07E019490968194A944201D0090D8D
:2055E00000E0090C07220A40022A07D140F200112143814206D1FFF737FE05E09000114904
:20560000085801E0FFF768FE410800228E4201D9022107E0B0FBF6F10B0E03D05A1CB1FB2E
:20562000F2F11A46154325606160521C4A43B0FBF2F070BD000105400000054014020040F3
:2056400000100540A86E00001349884206D0134A904207D1124A1268120A0BE0104A12682B
:20566000120B07E00E4A12680E4B984201D0120D00E0120C07231340022B06D140F200126E
:205680001043884205D1FFF7EFBD9800064908587047FFF721BEC046000105400000054011
:2056A0001402004000100540A86E00000021016041617047F0B581B00D4604465149524BA4
:2056C000984205D05148844205D10868000A09E00868000B06E008684D498C4201D0000D70
:2056E00000E0000C072108400228009108D140F2001020431E46984206D1FFF7B5FD05E073
:2057000080004449085802E0FFF7E6FD334600272760676140498D4200D30D46491C8842C5
:205720000CD23E49B1FBF0F140F2E832954201D840F2E8356A43B2FBF1F10EE0642D00D899
:2057400064253549B0FBF1F169430A0E05D01D46531CB1FBF3F12B46174661600125A90755
:20576000791821602E490E68B6FBF0F0401C03D000BF401EFCD10E689C4206D02348844225
:2057800007D120480068000A0BE01E480068000B07E01C4800681E498C4201D0000D00E0ED
:2057A000000C00990840022807D140F200102043984206D1FFF758FD05E080001549085836
:2057C00001E0FFF789FDE1682268920116D5B6FBF0F07A1C42436D060023D8431E46E7680B
:2057E000B94203D1964207D8761C01E0E168002627682F42F3D1184601B0F0BD002001B0F0
:20580000F0BDC04614020040000105400000054000100540A86E000040420F0000CA9A3B59
:205820000400002011434269034B13400B430821194341617047C046E78FFFFF0268FF296C
:2058400004D1012189058A430260704701239B051A430260426940F200739A430A4342613D
:20586000704741690822914341617047C26901239A430A43C2617047C26940F21E139A43B2
:205880000A43C2617047426901239A430A434261190602680A4302607047012109060268BB
:2058A0008A4302607047C0460949884204D0094988420AD1084900E00449084A4A6003B1E7
:2058C00001235A014A6106490160704700010540000005400010054000110540FFFFFF0004
:2058E000000008400121C90402688A430260704770B505460024C460F04806681E48854296
:2059000006D01E498D4207D11D490968090A0BE01B490968090B07E019490968194A9542F1
:2059200001D0090D00E0090C07220A40022A07D140F200112943814206D1FFF795FC05E05F
:2059400090001149085801E0FFF7C6FCB6FBF0F103204843E968002906DA0021401E07D074
:2059600000BFEA68002AF9DB00B9E443204670BD08460028FAD1F8E70001054000000540FA
:205980001402004000100540A86E0000F0B582B0019200230124032200921E462746B74015
:2059A0000F4207D0019F9F40009D9D400268AA433A4302609B1C761C102EEFD102B0F0BDEA
:2059C00010B5130E8B4084691C438461FF231B069A438A40C1691143C16110BD01228A40A1
:2059E000836993438361034A8A40C1699143C1617047C04601000100F0B582B0019200237E
:205A00000124032200921E462746B7400F4207D0019F9F40009D9D40826AAA433A43826287
:205A20009B1C761C102EEFD102B0F0BDF0B582B0019200230124032200921E462746B7408F
:205A40000F4207D0019F9F40009D9D40026BAA433A4302639B1C761C102EEFD102B0F0BD43
:205A600004490A6802239A43C007800F101808607047C04600C00040024801680122914318
:205A80000160704700C00040024800688007C00F7047C04600C000400248016801220A4306
:205AA0000260704700C00040F0B584B002901C4800220260039179B30026F443194D0320D4
:205AC00000050190281F009001233246144806606E60900001994118009F39602E60AB60D9
:205AE000114909680A27B1FBF7F14900491C491E012904DBAF68FF07F9D1012903DC0849B7
:205B00000C60214600E02968029F3950521C03988242DBD102480268104604B0F0BDC0462D
:205B2000D400002008C000400400002010B50F4900220A600E4B5A601C1F20601A60012033
:205B400098600C4800680A24B0FBF4F04000401C401E012804DB9C68E407F9D1012802DC12
:205B6000D043086010BD186810BDC046D400002008C0004004000020F0B58AB00490059161
:205B8000002963D00021C8430990334D281F0890212002900320000501900B460391009183
:205BA0009A00049EB45803982C4908600898029901600198111828460C38079101602946AD
:205BC00008390C6001272F60B2180692244A14680A22B4FBF2F46400641C641E012C04DBE2
:205BE0002E68F607F9D1012C02DC099C1B4E34602C6B640603D5099CA41E184E346000243D
:205C0000164E3460089E3460079E06600C602F6013480068B0FBF2F04000401C401E0128D9
:205C200004DB2A68D207F9D1012803DC09980B49086000E0086806990968884201D009984F
:205C400000905B1C05988342AAD101E00020009000980AB0F0BDC04610C00040D4000020C6
:205C600004000020B0B5134A00231360124B1C1F212525601C460C3C20601846083801601C
:205C8000012018600D4800680A21B0FBF1F04000411C0220C043491E012904DB1C68E40756
:205CA000F9D1012901DC811C1160196B490600D51060B0BDD400002010C000400400002058
:205CC000F0B51D4A002313600C460443E40503D0D843411E1160F0BD184C251F2D262E60AC
:205CE00026460C3E306020460838016001212160134E37687F007F1C7F1E012F04DB266860
:205D0000F607F9D1012F02DCD8431060F0BD0D262E6021600A4909684900491C491E012931
:205D200004DB2568ED07F9D1012902DCD8431060F0BD0068F0BDC046D400002010C00040DA
:205D400004000020F0B581B0254B00221A600C460443E40504D0D043411E196001B0F0BD9E
:205D6000204CA56B80262E43A66328256560251F0095286021600121A1601B4E36687600F3
:205D8000771C7F1E012F04DBA56BED07F9D1022F03DAD043186001B0F0BD08276760009D6C
:205DA0002860A160012E14DB761EA56BED07F9D1751C012D0DDD2568002DEFD020680B49DC
:205DC000884203D020680A49884206D1206801B0F0BDD043186001B0F0BDD04301B0F0BD6A
:205DE000D400002008C0004004000020FFFF1FA1000010A1012108B1C843704701480068C6
:205E000008407047E0C00040F0B584B030B10020C043401E4B49086004B0F0BD494B002057
:205E20001860494B1B68DB0727D1484C2546343D212300932B6026463C3E01277B05029304
:205E400033602346383B19602146303903970F603F4C24680A270197B4FBF7F46400641C23
:205E6000641E012C04DB0F68FF07F9D1012C07DCC0433449086004B0F0BD012004B0F0BD72
:205E8000324F3C6864061BD4009F2F60029C241D34601A60039A0A602D4A1268019CB2FB27
:205EA000F4F25200521C521E012A04DB0C68E407F9D1012A0EDCC0432249086004B0F0BD4D
:205EC000396840220A433A60C043811E1D4A116004B0F0BD1D4C226852061AD42F60029A99
:205EE000083232601860039A0A60194A1268019BB2FBF3F25200521C124C521E012A04DBB4
:205F00000B68DB07F9D1012A0DDCC043206004B0F0BD216840220A432260C043811E094ABB
:205F2000116004B0F0BD094A1168490607D510684021014311600020C043811E216004B013
:205F4000F0BDC046D4000020E0C0004040C0004004000020B0B501460020C24309B9084675
:205F600000E0501E154B1860154C11B92169C90720D0246813492225CD604C60124C8C6034
:205F800001240C61114C24680A25B4FBF5F4A400641C641E012C04DB0D69002DF9D1012C73
:205FA00001DC1A6010460C68640606D50868402404430C60901E18601046B0BDD400002017
:205FC000D0C0004000C0004003AA550004000020B0B50146134A00201060134B2224DC6052
:205FE000596001211961114909680A24B1FBF4F189004C1CC143641E012C0EDB1D69ED07BB
:20600000F9D1022C0C4609DB1C68640608D51868402404431C608C1E00E00C461460084642
:20602000B0BDC046D400002000C0004004000020F0B58AB0DF4A00251560604F2722BA6021
:2060400008903860EA4309925D4E30463C383446383C3346343B012204930692AA008B58FE
:20606000FB678A185368036093682360D268049B1A60069AFA602D1D1F2D00D97CE00794CD
:206080000190002405950391384682F31088CA490A680A210291B2FBF1F25200571C7F1E5D
:2060A0003268D2070CD1002181F3108871680F229143024601600168089A891A8D08099CF4
:2060C000012F6CDB2246336824B9302423400024002BE4D1012F62DD002A04D0144603994B
:2060E00007463EDA5EE005998A0003998B58C367891800914B6801990B60AF490B6802993C
:20610000B3FBF1F35B005C1C0799641E3368DB0710D1002181F3108871680F23994302463E
:2061200001600168089A891A8D080799099F012C03DA3AE00027012C37DB33681FB9C02294
:206140001340002BE1D1012C049B2EDD9FBB009CA2680A60E2681A60002484F3108803993B
:2061600007460598001D05902028069A8CD3002C0198079C00D071E78F4800680A21B0FB97
:20618000F1F04000401C401E012804DBF96BC907F9D101280DDC099A8648026002E085488A
:2061A000099A026010460AB0F0BD8248099A0260F8E70022F6E7099AF4E7C04604C00040E8
:2061C000C0C00040014800687047C046C4000020014908607047C046C400002002480168A7
:2061E000491C01607047C046C400002005480168491C01600168491C00D0704700210160E5
:206200007047C046C400002003490A680B689B1A8342FBD37047C046C400002010B50E4AA6
:20622000002111600D4A1268B2FBF0F0401E020E03D00E4800F0FEFCFEE7094A094B5860A9
:2062400009480468144003229207A218026099600720186010BDC046C400002004000020E0
:20626000FFFFFF0010E000E020ED00E0416F0000014800687047C046C800002001490860AC
:206280007047C046C800002005480168491C01600168044A914201D3002101607047C04640
:2062A000C800002060EA0000F0B581B00C4605463D480168C900FCD53C48592116228823D0
:2062C0000160026003600668002EF9D0FFF7E4FB3748012D26D0002D49D1012383F3108842
:2062E000344900220A60344D2D68061F2E27376006460C3E1F05376003600A23B5FBF3F3F7
:206300005B005B1C5B1E012B04DB0568ED07F9D1012B01DCD2430A60014610390A6802214F
:20632000114322E0012383F31088224900220A60214D2D68061F2E27376006460C3E3260A2
:2063400003600A23B5FBF3F35B005B1C5B1E012B04DB0568ED07F9D1012B01DCD2430A600E
:206360000146103909680222914310380160022C0BD0012C0FD0A4B9BFF34F8F0F481049C9
:206380000160BFF34F8F00BFFDE701B0F0BC01BC8646FEF7C1BE01B0F0BC01BC8646FEF734
:2063A000C3BE01B0F0BDC046184007400001004010C00040D4000020040000200CED00E017
:2063C0000400FA0510B5044804780448214600F0D5FA204610BDC046F43F0020E86E0000D9
:2063E000014602480160024800F0C8BAF43F0020016F000010B515480168C90725D00121BA
:20640000016013480268521C02600268114B9A4201D300220260026840F2E833B2FBF3F441
:206420005C43121B03D10C4A13680B431360016840F2F412B1FBF2F35343C91A04D106495B
:206440000A68022313430B60006810BD08010540C800002060EA0000CC000020B0B50125B8
:20646000E906094C204640F2E832FFF7A1F86807216801432160054802210160A8072168D1
:2064800001432160B0BDC0460001054004E100E010B50B4800680B480168CA070ED00124A9
:2064A000A143016008480268511C01600748084900F064FA074801686140016010BDC04694
:2064C000C4000020CC000020D80000201B6F0000596F00004048004070B5574D2868C4B20B
:2064E000802C05D36BA070BC02BC8E4600F0A2BB52A0214600F042FA20465838222852D813
:20650000810001A251188F4600F044B800F093B800F040B800F08FB800F08DB800F08BB86B
:2065200000F089B800F087B800F085B800F083B800F081B800F07FB800F07DB800F07BB80B
:2065400000F079B800F077B800F075B800F073B800F071B800F06FB800F06DB800F06BB86B
:2065600000F069B800F067B800F065B800F063B800F061B800F05FB800F05DB800F05BB8CB
:2065800000F059B800F057B800F004B800F053B800F000B8BFF34F8F2C482D490160BFF31F
:2065A0004F8F00BFFDE7312C45D12A4E31782A4C204600F0E3F9A5213160284800F0DEF990
:2065C0003178204600F0DAF925A000F033FBA869C000FCD52B4859211622882301600260D1
:2065E00003600468002CF9D0FFF756FA012383F31088254900220A602448046824482E25CE
:20660000C560426003610A23B4FBF3F35B005B1C5B1E012B04DB0469E407F9D1012B01DC0C
:20662000D2430A60016802229143016070BC01BC8646FEF779BD70BD0040074070726573CB
:2066400073203A2025630D0A000000000CED00E00400FA05F43F0020E86E0000016F0000B9
:20666000506572666F726D2052535420746F20656E74657220424F4F544C4F414445520DCD
:206680000000000000010040D40000200400002000C00040696E76616C696420636F6D6DEE
:2066A000616E640D00000000B0B50F4C606841F20011084209D02068400406D444F20005CA
:2066C000FFF70AFF20682842FAD020687121084208D0183C204642F20041B0BC04BC96468C
:2066E000FEF7BABAB0BDC0461840074010B51C48FEF722FDE12041021A4C2046FEF7F8FAEB
:2067000011212046FEF7EFFA0120C00416490860FEF722FE0146154800F030F9FEF714FE7E
:20672000014613A000F02AF9FEF788FD014616A000F024F9FEF78EFD014619A000F01EF941
:20674000FEF792FD01461CA000F018F9FEF7C4FD014620A010BC04BC964600F00FB9C046CE
:20676000140000040040074004E100E0286F0000434C4B5F47657448434C4B4672657120F5
:206780003A202538640D0A00434C4B5F47657448585446726571203A202538640D0A00009A
:2067A000434C4B5F4765744C585446726571203A202538640D0A0000434C4B5F47657450FF
:2067C000434C4B3046726571203A202538640D0A00000000434C4B5F47657450434C4B311B
:2067E00046726571203A202538640D0A00000000044801680F2291430160034801210A46E1
:20680000FFF7C4B8380000404040004070B5174E5920162188223060316032603368002B71
:20682000F9D013480168F022914301600420FEF723FE1020FEF7CCFD072000242146FEF7B5
:2068400093FD1920FEF728FE0A4D2846FEF724FE284647F200012246FEF7D6FDFEF720F992
:20686000FEF70AF9FEF7D4F8346070BD00010040404100400300C05EFFF7C8FF2D4F3868A2
:206880000F21884338602C48012421462246FFF77DF8FFF72BFFE106284D40F2E836284658
:2068A00040F2E832FEF784FE6007296801432960234802210160383F286838432860214FE7
:2068C00000253D602048294600F058F839781F4800F054F81E4805601E480068B0FBF6F061
:2068E000401E010E03D0244800F0A4F9FEE71A491A4A50601A4803680B40032189075918C6
:206900000160956007201060164D174E174F104800683068C107FAD0A04330603A68501CF1
:2069200038601348134900F029F8286860402860EDE7C046380000404040004000010540E7
:2069400004E100E0F43F0020016F0000E86E0000C400002004000020FFFFFF0010E000E084
:2069600020ED00E040480040CC000020D80000201B6F0000596F0000416F00000FB405496B
:2069800010B503AA029800F0DDF910BC08BC04B0184700007000002070B50446856900682D
:2069A000C10601D5302600E02026C00707D070BD62683046A1689047206A401C20626D1EE0
:2069C000F6D570BD70B5044685690078C00707D170BD6268A16820209047206A401C2062CC
:2069E0006D1EF6D570BD70B50C460546012A05D02878800600D5EA69002302E0012305E0F6
:206A00005B1C934202D2E05C0028F9D1A869E618C01AA861286AC01828622846FFF7BCFF23
:206A200004E06A682078A968641C9047B442F8D32846FFF7C7FF70BDF7B5002575291068A1
:206A4000009914A611D0C046C046002802DA404211A608E0009909688A0701D50FA602E0C9
:206A6000490704D50EA6012501E0C046C046009F0024243704E000F079F930313955641C53
:206A80000028F8D12B4632462146009800F0EBF8FEBD0000000000002D0000002B00000037
:206AA0002000000070B504460D4621461068C046C0462188090502D50F4A7A4402E00E4A2A
:206AC0007A440E3223460021243305E006070009360F965D5E54491C0028F7D120780023E2
:206AE000000705D5702D03D0002901D002231132204600F0B8F870BD7A030000F3B5044641
:206B0000002081B020622046E168884700287DD0252802D06268A16883E0454F00257F44DE
:206B20002046E16888472028064608DB312E06D2B81920380078002801D00543F0E7A807C1
:206B400001D5042085430020E0610746A0612A2E0AD0304600F069F9002827D0B8000019DA
:206B6000303E0090866119E00298BA00121902C8916102902046E1688847012F064617D188
:206B8000E06900281FDA202085431CE000980A218069484300998019303888612046E1681E
:206BA0008847064600F041F90028EFD1012F0AD02E2E08D12046E168884706462020054317
:206BC0007F1C022FC3DBA069002803DA4042A06101200543E80701D010208543002E24D077
:206BE00030464138192803D80120C00205432036204625603146029A1546FDF7DFFE0028B7
:206C00000CD0012807D0ED1DE80800E00DE0C0000830029077E72D1D029574E7626830466D
:206C2000A1689047206A401C6CE7206AFEBD00003E03000010B5044603E0FDF7F9FF401C7B
:206C400008D020780549641C0028F6D10A20FDF7EFFF10BD0020C04310BD000070000020AE
:206C6000704770477047FFB504460D4681B0243000902168880604D51022E06991432160C9
:206C800000E00120A84201DD471B00E000270498A1697A191018081AA0612078C00602D40A
:206CA0002046FFF779FE002608E003986268A168805D9047206A401C761C20620498864273
:206CC000F3DB2078C0060AD52046FFF765FE06E06268A16830209047206A401C2062384624
:206CE0007F1E0028F4DC07E000986268A168405D9047206A401C206228466D1E0028F3DCE1
:206D00002046FFF75FFE2078000602D5022005B0F0BD0120FBE710B54369002B02D0C0464A
:206D2000C04601E0FFF75FFE012010BD1278014624310A7000224A700122ECE7116800221E
:206D4000D243E8E7084B70B50D467B4400F027F804462846FDF77CFF002802D00020C04372
:206D600070BD204670BD0000E3DEFFFF01468008081A02091018020A1018020C1018C0083E
:206D8000820012185200891A01E0401C0A390A29FBD2704701694A1C02610878704700B5FC
:206DA0008FB00291002105910549019379440391114604906846FFF7A1FE0FB000BD00006D
:206DC000E5FFFFFF754600F025F8AE46050069465346C008C000854618B020B5FDF7A4FE42
:206DE00060BCB64600260027C0C5C0C5C0C5C0C5C0C5C0C5C0C5C0C5403D490849008D461C
:206E0000704710B50446C046C0462046FDF7FAFD10BD0000004870471000002001491820D1
:206E2000ABBEFEE726000200704730380A2801D2012070470020704730313233343536376D
:206E400038394142434445464030580030313233343536373839616263646566403078001A
:206E60000400000800000000000000020001000010000000000000000400000008000000E7
:206E8000001BB7000000000000800000006CDC0200000000009600000000000004000000BC
:206EA000080000000C000000001BB7000080000000000000000000000000000000960000D6
:206EC00000000000006CDC02001BB7000080000000000000009600000000000000863D00BD
:206EE00000000000006CDC0252656164204D61676963546167203C3078253032583E0D0A77
:206F0000005772697465204D61676963546167203C3078253032583E0D0A003129257320FF
:206F20003A202534640D0A000D0A434C4B5F47657443505546726571203A202538640D0AEB
:206F4000005365742073797374656D207469636B206572726F722121006C6F6F700000002F
:206F6000806F0000000000200C000000844900008C6F000010000020D0080000A04900003D
:206F800030000000006CDC0201000000FFFFFFFFFFFFFFFFFFFFFFFFFFFFFFFFFFFFFFFF8A
:206FA000FFFFFFFFFFFFFFFFFFFFFFFFFFFFFFFFFFFFFFFFFFFFFFFFFFFFFFFFFFFFFFFFF1
:206FC000FFFFFFFFFFFFFFFFFFFFFFFFFFFFFFFFFFFFFFFFFFFFFFFFFFFFFFFFFFFFFFFFD1
:206FE000FFFFFFFFFFFFFFFFFFFFFFFFFFFFFFFFFFFFFFFFFFFFFFFFFFFFFFFFFFFFFFFFB1
:20700000FFFFFFFFFFFFFFFFFFFFFFFFFFFFFFFFFFFFFFFFFFFFFFFFFFFFFFFFFFFFFFFF90
:020000040001F9
:20FFE000FFFFFFFFFFFFFFFFFFFFFFFFFFFFFFFFFFFFFFFFFFFFFFFFFFFFFFFF9A5744C127
:00000001FF
